{
  "contractName": "Campaign",
  "abi": [
    {
      "inputs": [
        {
          "internalType": "uint256",
          "name": "_minContribution",
          "type": "uint256"
        },
        {
          "internalType": "address",
          "name": "creator",
          "type": "address"
        }
      ],
      "stateMutability": "nonpayable",
      "type": "constructor"
    },
    {
      "inputs": [],
      "name": "approverCount",
      "outputs": [
        {
          "internalType": "uint256",
          "name": "",
          "type": "uint256"
        }
      ],
      "stateMutability": "view",
      "type": "function"
    },
    {
      "inputs": [
        {
          "internalType": "address",
          "name": "",
          "type": "address"
        }
      ],
      "name": "approvers",
      "outputs": [
        {
          "internalType": "bool",
          "name": "",
          "type": "bool"
        }
      ],
      "stateMutability": "view",
      "type": "function"
    },
    {
      "inputs": [],
      "name": "manager",
      "outputs": [
        {
          "internalType": "address",
          "name": "",
          "type": "address"
        }
      ],
      "stateMutability": "view",
      "type": "function"
    },
    {
      "inputs": [],
      "name": "minContribution",
      "outputs": [
        {
          "internalType": "uint256",
          "name": "",
          "type": "uint256"
        }
      ],
      "stateMutability": "view",
      "type": "function"
    },
    {
      "inputs": [
        {
          "internalType": "uint256",
          "name": "",
          "type": "uint256"
        }
      ],
      "name": "requests",
      "outputs": [
        {
          "internalType": "string",
          "name": "description",
          "type": "string"
        },
        {
          "internalType": "uint256",
          "name": "value",
          "type": "uint256"
        },
        {
          "internalType": "address payable",
          "name": "recipient",
          "type": "address"
        },
        {
          "internalType": "bool",
          "name": "complete",
          "type": "bool"
        },
        {
          "internalType": "uint256",
          "name": "approvalCount",
          "type": "uint256"
        }
      ],
      "stateMutability": "view",
      "type": "function"
    },
    {
      "inputs": [],
      "name": "contribute",
      "outputs": [],
      "stateMutability": "payable",
      "type": "function"
    },
    {
      "inputs": [
        {
          "internalType": "string",
          "name": "description",
          "type": "string"
        },
        {
          "internalType": "uint256",
          "name": "value",
          "type": "uint256"
        },
        {
          "internalType": "address payable",
          "name": "recipient",
          "type": "address"
        }
      ],
      "name": "createRequest",
      "outputs": [],
      "stateMutability": "nonpayable",
      "type": "function"
    },
    {
      "inputs": [
        {
          "internalType": "uint256",
          "name": "index",
          "type": "uint256"
        }
      ],
      "name": "approveRequest",
      "outputs": [],
      "stateMutability": "nonpayable",
      "type": "function"
    },
    {
      "inputs": [
        {
          "internalType": "uint256",
          "name": "index",
          "type": "uint256"
        }
      ],
      "name": "finalizeRequest",
      "outputs": [],
      "stateMutability": "nonpayable",
      "type": "function"
    },
    {
      "inputs": [],
      "name": "getSummary",
      "outputs": [
        {
          "internalType": "uint256",
          "name": "",
          "type": "uint256"
        },
        {
          "internalType": "uint256",
          "name": "",
          "type": "uint256"
        },
        {
          "internalType": "uint256",
          "name": "",
          "type": "uint256"
        },
        {
          "internalType": "uint256",
          "name": "",
          "type": "uint256"
        },
        {
          "internalType": "address",
          "name": "",
          "type": "address"
        }
      ],
      "stateMutability": "view",
      "type": "function"
    },
    {
      "inputs": [],
      "name": "requestCount",
      "outputs": [
        {
          "internalType": "uint256",
          "name": "",
          "type": "uint256"
        }
      ],
      "stateMutability": "view",
      "type": "function"
    }
  ],
  "bytecode": "0x608060405260006004553480156200001657600080fd5b50604051620010d1380380620010d183398181016040528101906200003c919062000131565b80600160006101000a81548173ffffffffffffffffffffffffffffffffffffffff021916908373ffffffffffffffffffffffffffffffffffffffff16021790555081600281905550505062000178565b600080fd5b6000819050919050565b620000a68162000091565b8114620000b257600080fd5b50565b600081519050620000c6816200009b565b92915050565b600073ffffffffffffffffffffffffffffffffffffffff82169050919050565b6000620000f982620000cc565b9050919050565b6200010b81620000ec565b81146200011757600080fd5b50565b6000815190506200012b8162000100565b92915050565b600080604083850312156200014b576200014a6200008c565b5b60006200015b85828601620000b5565b92505060206200016e858286016200011a565b9150509250929050565b610f4980620001886000396000f3fe60806040526004361061009c5760003560e01c80635badbe4c116100645780635badbe4c1461018c57806381d12c58146101b75780638a9cfd55146101f8578063aaffadf314610221578063d7bb99ba1461024c578063d7d1bbdb146102565761009c565b806303441006146100a15780630a144391146100ca578063128e9be6146101075780634051ddac14610132578063481c6a7514610161575b600080fd5b3480156100ad57600080fd5b506100c860048036038101906100c39190610932565b61027f565b005b3480156100d657600080fd5b506100f160048036038101906100ec91906109bd565b6103c8565b6040516100fe9190610a05565b60405180910390f35b34801561011357600080fd5b5061011c6103e8565b6040516101299190610a2f565b60405180910390f35b34801561013e57600080fd5b506101476103ee565b604051610158959493929190610a59565b60405180910390f35b34801561016d57600080fd5b50610176610437565b6040516101839190610aac565b60405180910390f35b34801561019857600080fd5b506101a161045d565b6040516101ae9190610a2f565b60405180910390f35b3480156101c357600080fd5b506101de60048036038101906101d99190610932565b610469565b6040516101ef959493929190610b81565b60405180910390f35b34801561020457600080fd5b5061021f600480360381019061021a9190610d3c565b610564565b005b34801561022d57600080fd5b50610236610673565b6040516102439190610a2f565b60405180910390f35b610254610679565b005b34801561026257600080fd5b5061027d60048036038101906102789190610932565b6106f9565b005b600160009054906101000a900473ffffffffffffffffffffffffffffffffffffffff1673ffffffffffffffffffffffffffffffffffffffff163373ffffffffffffffffffffffffffffffffffffffff16146102d957600080fd5b60008082815481106102ee576102ed610dab565b5b90600052602060002090600502019050600260045461030d9190610e38565b81600301541161031c57600080fd5b8060020160149054906101000a900460ff161561033857600080fd5b8060020160009054906101000a900473ffffffffffffffffffffffffffffffffffffffff1673ffffffffffffffffffffffffffffffffffffffff166108fc82600101549081150290604051600060405180830381858888f193505050501580156103a6573d6000803e3d6000fd5b5060018160020160146101000a81548160ff0219169083151502179055505050565b60036020528060005260406000206000915054906101000a900460ff1681565b60045481565b600080600080600060025447600080549050600454600160009054906101000a900473ffffffffffffffffffffffffffffffffffffffff16945094509450945094509091929394565b600160009054906101000a900473ffffffffffffffffffffffffffffffffffffffff1681565b60008080549050905090565b6000818154811061047957600080fd5b906000526020600020906005020160009150905080600001805461049c90610e98565b80601f01602080910402602001604051908101604052809291908181526020018280546104c890610e98565b80156105155780601f106104ea57610100808354040283529160200191610515565b820191906000526020600020905b8154815290600101906020018083116104f857829003601f168201915b5050505050908060010154908060020160009054906101000a900473ffffffffffffffffffffffffffffffffffffffff16908060020160149054906101000a900460ff16908060030154905085565b600160009054906101000a900473ffffffffffffffffffffffffffffffffffffffff1673ffffffffffffffffffffffffffffffffffffffff163373ffffffffffffffffffffffffffffffffffffffff16146105be57600080fd5b6000806001816001815401808255809150500390600052602060002090600502019050838160000190805190602001906105f9929190610845565b50828160010181905550818160020160006101000a81548173ffffffffffffffffffffffffffffffffffffffff021916908373ffffffffffffffffffffffffffffffffffffffff16021790555060008160020160146101000a81548160ff0219169083151502179055506000816003018190555050505050565b60025481565b600254341161068757600080fd5b6001600360003373ffffffffffffffffffffffffffffffffffffffff1673ffffffffffffffffffffffffffffffffffffffff16815260200190815260200160002060006101000a81548160ff021916908315150217905550600460008154809291906106f290610eca565b9190505550565b600080828154811061070e5761070d610dab565b5b90600052602060002090600502019050600360003373ffffffffffffffffffffffffffffffffffffffff1673ffffffffffffffffffffffffffffffffffffffff16815260200190815260200160002060009054906101000a900460ff1661077457600080fd5b8060040160003373ffffffffffffffffffffffffffffffffffffffff1673ffffffffffffffffffffffffffffffffffffffff16815260200190815260200160002060009054906101000a900460ff16156107cd57600080fd5b60018160040160003373ffffffffffffffffffffffffffffffffffffffff1673ffffffffffffffffffffffffffffffffffffffff16815260200190815260200160002060006101000a81548160ff02191690831515021790555080600301600081548092919061083c90610eca565b91905055505050565b82805461085190610e98565b90600052602060002090601f01602090048101928261087357600085556108ba565b82601f1061088c57805160ff19168380011785556108ba565b828001600101855582156108ba579182015b828111156108b957825182559160200191906001019061089e565b5b5090506108c791906108cb565b5090565b5b808211156108e45760008160009055506001016108cc565b5090565b6000604051905090565b600080fd5b600080fd5b6000819050919050565b61090f816108fc565b811461091a57600080fd5b50565b60008135905061092c81610906565b92915050565b600060208284031215610948576109476108f2565b5b60006109568482850161091d565b91505092915050565b600073ffffffffffffffffffffffffffffffffffffffff82169050919050565b600061098a8261095f565b9050919050565b61099a8161097f565b81146109a557600080fd5b50565b6000813590506109b781610991565b92915050565b6000602082840312156109d3576109d26108f2565b5b60006109e1848285016109a8565b91505092915050565b60008115159050919050565b6109ff816109ea565b82525050565b6000602082019050610a1a60008301846109f6565b92915050565b610a29816108fc565b82525050565b6000602082019050610a446000830184610a20565b92915050565b610a538161097f565b82525050565b600060a082019050610a6e6000830188610a20565b610a7b6020830187610a20565b610a886040830186610a20565b610a956060830185610a20565b610aa26080830184610a4a565b9695505050505050565b6000602082019050610ac16000830184610a4a565b92915050565b600081519050919050565b600082825260208201905092915050565b60005b83811015610b01578082015181840152602081019050610ae6565b83811115610b10576000848401525b50505050565b6000601f19601f8301169050919050565b6000610b3282610ac7565b610b3c8185610ad2565b9350610b4c818560208601610ae3565b610b5581610b16565b840191505092915050565b6000610b6b8261095f565b9050919050565b610b7b81610b60565b82525050565b600060a0820190508181036000830152610b9b8188610b27565b9050610baa6020830187610a20565b610bb76040830186610b72565b610bc460608301856109f6565b610bd16080830184610a20565b9695505050505050565b600080fd5b600080fd5b7f4e487b7100000000000000000000000000000000000000000000000000000000600052604160045260246000fd5b610c1d82610b16565b810181811067ffffffffffffffff82111715610c3c57610c3b610be5565b5b80604052505050565b6000610c4f6108e8565b9050610c5b8282610c14565b919050565b600067ffffffffffffffff821115610c7b57610c7a610be5565b5b610c8482610b16565b9050602081019050919050565b82818337600083830152505050565b6000610cb3610cae84610c60565b610c45565b905082815260208101848484011115610ccf57610cce610be0565b5b610cda848285610c91565b509392505050565b600082601f830112610cf757610cf6610bdb565b5b8135610d07848260208601610ca0565b91505092915050565b610d1981610b60565b8114610d2457600080fd5b50565b600081359050610d3681610d10565b92915050565b600080600060608486031215610d5557610d546108f2565b5b600084013567ffffffffffffffff811115610d7357610d726108f7565b5b610d7f86828701610ce2565b9350506020610d908682870161091d565b9250506040610da186828701610d27565b9150509250925092565b7f4e487b7100000000000000000000000000000000000000000000000000000000600052603260045260246000fd5b7f4e487b7100000000000000000000000000000000000000000000000000000000600052601260045260246000fd5b7f4e487b7100000000000000000000000000000000000000000000000000000000600052601160045260246000fd5b6000610e43826108fc565b9150610e4e836108fc565b925082610e5e57610e5d610dda565b5b828204905092915050565b7f4e487b7100000000000000000000000000000000000000000000000000000000600052602260045260246000fd5b60006002820490506001821680610eb057607f821691505b60208210811415610ec457610ec3610e69565b5b50919050565b6000610ed5826108fc565b91507fffffffffffffffffffffffffffffffffffffffffffffffffffffffffffffffff821415610f0857610f07610e09565b5b60018201905091905056fea26469706673582212204f264713d8a52ecc03435b9590c93d81f7590278591f92705923cc32c933aa1d64736f6c634300080b0033",
  "immutableReferences": {},
  "source": "// SPDX-License-Identifier: GPL-3.0\n\npragma solidity >=0.7.0 <0.9.0;\n\ncontract CampaignFactory {\n\nCampaign[] public deployedCamapaign;\n\nfunction createCampaign(uint minimum) public {\n     Campaign newCampaign = new Campaign(minimum,msg.sender);\n    deployedCamapaign.push(newCampaign);\n}\n\nfunction getDeployedCampaigns() public view returns (Campaign[] memory) {\n    return deployedCamapaign;\n}\n\n}\ncontract Campaign {\n\nstruct Request {\n    string description;\n    uint value;\n    address payable recipient;\n    bool complete;\n    uint approvalCount;\n    mapping(address=>bool) approvals;\n}\n\nRequest[] public requests;\naddress public manager;\nuint public minContribution;\nmapping(address=>bool) public approvers;\nuint public approverCount = 0;\n\nmodifier restricted() {\n    require(msg.sender == manager);\n    _;\n}\nconstructor(uint _minContribution, address creator)  {\n    manager = creator;\n    minContribution = _minContribution;\n}\n\nfunction contribute() public payable {\n    require(msg.value > minContribution);\n    approvers[msg.sender] = true;\n    approverCount++;\n\n}\n\nfunction createRequest(string memory description,uint value, address payable recipient ) public restricted {\n    Request storage newRequest =  requests.push();\n    newRequest.description = description;\n    newRequest.value = value;\n    newRequest.recipient = recipient;\n    newRequest.complete = false;\n    newRequest.approvalCount = 0;\n}\n\nfunction approveRequest(uint index) public {\n    Request storage request = requests[index];\n    require(approvers[msg.sender]);\n    require(!request.approvals[msg.sender]);\n    request.approvals[msg.sender] = true;\n    request.approvalCount++;\n}\n\n\nfunction finalizeRequest(uint index) public restricted{\n    Request storage request = requests[index];\n    require(request.approvalCount > (approverCount/2));\n    require(!request.complete);\n    request.recipient.transfer(request.value);\n\n    request.complete = true;\n}\n\nfunction getSummary() public view returns(uint,uint,uint,uint,address){\nreturn (\n    minContribution,\n    address(this).balance,\n    requests.length,\n    approverCount,\n    manager\n);\n}\n\nfunction requestCount() public view returns(uint) {\n    return requests.length;\n}\n\n}",
  "sourcePath": "/Volumes/Developer/Blockchain/Kickstarter/Contract/contracts/Campaign.sol",
  "compiler": {
    "name": "solc",
    "version": "0.8.11+commit.d7f03943.Emscripten.clang"
  },
  "schemaVersion": "3.4.4",
  "updatedAt": "2022-01-27T14:25:46.968Z",
  "devdoc": {
    "kind": "dev",
    "methods": {},
    "version": 1
  },
  "userdoc": {
    "kind": "user",
    "methods": {},
    "version": 1
  }
}